{
  "address": "0xf28D078D4a5BAf4b9416F06D51CCe238770aA69b",
  "abi": [
    {
      "inputs": [
        {
          "internalType": "uint8",
          "name": "_initialFeePercentage",
          "type": "uint8"
        }
      ],
      "stateMutability": "nonpayable",
      "type": "constructor"
    },
    {
      "anonymous": false,
      "inputs": [
        {
          "indexed": true,
          "internalType": "address",
          "name": "sender",
          "type": "address"
        },
        {
          "indexed": true,
          "internalType": "address",
          "name": "creator",
          "type": "address"
        },
        {
          "indexed": false,
          "internalType": "uint256",
          "name": "amount",
          "type": "uint256"
        },
        {
          "indexed": false,
          "internalType": "string",
          "name": "comment",
          "type": "string"
        }
      ],
      "name": "TipSent",
      "type": "event"
    },
    {
      "inputs": [],
      "name": "platformFeePercentage",
      "outputs": [
        {
          "internalType": "uint8",
          "name": "",
          "type": "uint8"
        }
      ],
      "stateMutability": "view",
      "type": "function"
    },
    {
      "inputs": [],
      "name": "platformOwner",
      "outputs": [
        {
          "internalType": "address payable",
          "name": "",
          "type": "address"
        }
      ],
      "stateMutability": "view",
      "type": "function"
    },
    {
      "inputs": [
        {
          "internalType": "uint8",
          "name": "_newFeePercentage",
          "type": "uint8"
        }
      ],
      "name": "setPlatformFeePercentage",
      "outputs": [],
      "stateMutability": "nonpayable",
      "type": "function"
    },
    {
      "inputs": [
        {
          "internalType": "address payable",
          "name": "_creatorWallet",
          "type": "address"
        },
        {
          "internalType": "string",
          "name": "comment",
          "type": "string"
        }
      ],
      "name": "tipCreator",
      "outputs": [],
      "stateMutability": "payable",
      "type": "function"
    },
    {
      "inputs": [],
      "name": "withdrawAll",
      "outputs": [],
      "stateMutability": "nonpayable",
      "type": "function"
    },
    {
      "stateMutability": "payable",
      "type": "receive"
    }
  ],
  "transactionHash": "0x199a1113ac2943bb32df86fbe7c0d9e66e1eb1644a97c3e3c263311045c786de",
  "args": [
    1
  ],
  "numDeployments": 1,
  "solcInputHash": "46875538f481784a7866d5c59c4bda57",
  "bytecode": "0x608060405234801561001057600080fd5b506040516107e93803806107e983398101604081905261002f916100cb565b60648160ff161061009a5760405162461bcd60e51b815260206004820152602b60248201527f496e697469616c206665652070657263656e74616765206d757374206265203160448201526a18181037b9103632b9b99760a91b606482015260840160405180910390fd5b600080546001600160a81b0319163360ff60a01b191617600160a01b60ff93909316929092029190911790556100f5565b6000602082840312156100dd57600080fd5b815160ff811681146100ee57600080fd5b9392505050565b6106e5806101046000396000f3fe60806040526004361061004e5760003560e01c8063233fcbe41461005a5780634df8ccb11461006f578063853828b6146100ac5780638de99609146100c1578063cdd78cfc146100e157600080fd5b3661005557005b600080fd5b61006d610068366004610506565b610114565b005b34801561007b57600080fd5b5060005461008f906001600160a01b031681565b6040516001600160a01b0390911681526020015b60405180910390f35b3480156100b857600080fd5b5061006d610336565b3480156100cd57600080fd5b5061006d6100dc366004610597565b61045e565b3480156100ed57600080fd5b5060005461010290600160a01b900460ff1681565b60405160ff90911681526020016100a3565b600054600160a81b900460ff161561016c5760405162461bcd60e51b81526020600482015260166024820152752737903932b2b73a3930b731bc9030b63637bbb2b21760511b60448201526064015b60405180910390fd5b6000805460ff60a81b1916600160a81b179055346101d75760405162461bcd60e51b815260206004820152602260248201527f54697020616d6f756e74206d7573742062652067726561746572207468616e20604482015261181760f11b6064820152608401610163565b6001600160a01b03831661022d5760405162461bcd60e51b815260206004820152601f60248201527f496e76616c69642063726561746f722077616c6c657420616464726573732e006044820152606401610163565b6000805460649061024890600160a01b900460ff16346105d7565b61025291906105f4565b905060006102608234610616565b600080546040519293506001600160a01b03169184156108fc0291859190818181858888f1935050505015801561029b573d6000803e3d6000fd5b506040516001600160a01b0386169082156108fc029083906000818181858888f193505050501580156102d2573d6000803e3d6000fd5b50846001600160a01b0316336001600160a01b03167f47699a4a144a6ecb85d9f1d3f809cbb382de4ad771c46d73422dd419cebec46583878760405161031a93929190610629565b60405180910390a350506000805460ff60a81b19169055505050565b6000546001600160a01b031633146103605760405162461bcd60e51b81526004016101639061065f565b600054600160a81b900460ff16156103b35760405162461bcd60e51b81526020600482015260166024820152752737903932b2b73a3930b731bc9030b63637bbb2b21760511b6044820152606401610163565b6000805460ff60a81b1916600160a81b17905547806104145760405162461bcd60e51b815260206004820152601960248201527f436f6e74726163742062616c616e6365206973207a65726f2e000000000000006044820152606401610163565b600080546040516001600160a01b039091169183156108fc02918491818181858888f1935050505015801561044d573d6000803e3d6000fd5b50506000805460ff60a81b19169055565b6000546001600160a01b031633146104885760405162461bcd60e51b81526004016101639061065f565b60648160ff1611156104e65760405162461bcd60e51b815260206004820152602160248201527f4665652070657263656e746167652063616e6e6f7420657863656564203130306044820152601760f91b6064820152608401610163565b6000805460ff909216600160a01b0260ff60a01b19909216919091179055565b60008060006040848603121561051b57600080fd5b83356001600160a01b038116811461053257600080fd5b9250602084013567ffffffffffffffff8082111561054f57600080fd5b818601915086601f83011261056357600080fd5b81358181111561057257600080fd5b87602082850101111561058457600080fd5b6020830194508093505050509250925092565b6000602082840312156105a957600080fd5b813560ff811681146105ba57600080fd5b9392505050565b634e487b7160e01b600052601160045260246000fd5b80820281158282048414176105ee576105ee6105c1565b92915050565b60008261061157634e487b7160e01b600052601260045260246000fd5b500490565b818103818111156105ee576105ee6105c1565b83815260406020820152816040820152818360608301376000818301606090810191909152601f909201601f1916010192915050565b60208082526030908201527f4f6e6c792074686520706c6174666f726d206f776e65722063616e207065726660408201526f37b936903a3434b99030b1ba34b7b71760811b60608201526080019056fea2646970667358221220f2caac4ba42266853a9cf134af80c46bc5fa7db1f0dcfb0136912bb2070611bd64736f6c63430008110033",
  "devdoc": {
    "author": "BuidlGuidl",
    "kind": "dev",
    "methods": {},
    "version": 1
  },
  "userdoc": {
    "kind": "user",
    "methods": {},
    "notice": "A smart contract that allows changing a state variable of the contract and tracking the changes It also allows the owner to withdraw the Ether in the contract",
    "version": 1
  },
  "storageLayout": {
    "storage": [
      {
        "astId": 5,
        "contract": "contracts/BitTipContract.sol:BitTipContract",
        "label": "platformOwner",
        "offset": 0,
        "slot": "0",
        "type": "t_address_payable"
      },
      {
        "astId": 7,
        "contract": "contracts/BitTipContract.sol:BitTipContract",
        "label": "platformFeePercentage",
        "offset": 20,
        "slot": "0",
        "type": "t_uint8"
      },
      {
        "astId": 31,
        "contract": "contracts/BitTipContract.sol:BitTipContract",
        "label": "locked",
        "offset": 21,
        "slot": "0",
        "type": "t_bool"
      }
    ],
    "types": {
      "t_address_payable": {
        "encoding": "inplace",
        "label": "address payable",
        "numberOfBytes": "20"
      },
      "t_bool": {
        "encoding": "inplace",
        "label": "bool",
        "numberOfBytes": "1"
      },
      "t_uint8": {
        "encoding": "inplace",
        "label": "uint8",
        "numberOfBytes": "1"
      }
    }
  }
}